{
  "_format": "hh-sol-artifact-1",
  "contractName": "MDCNCoordination",
  "sourceName": "Contracts/MDCNCordination.sol",
  "abi": [
    {
      "anonymous": false,
      "inputs": [
        {
          "indexed": true,
          "internalType": "uint256",
          "name": "id",
          "type": "uint256"
        },
        {
          "indexed": false,
          "internalType": "string",
          "name": "data",
          "type": "string"
        },
        {
          "indexed": false,
          "internalType": "uint256",
          "name": "timestamp",
          "type": "uint256"
        }
      ],
      "name": "IntelligenceSynced",
      "type": "event"
    },
    {
      "anonymous": false,
      "inputs": [
        {
          "indexed": true,
          "internalType": "uint256",
          "name": "targetId",
          "type": "uint256"
        },
        {
          "indexed": false,
          "internalType": "uint256",
          "name": "timestamp",
          "type": "uint256"
        }
      ],
      "name": "TargetSet",
      "type": "event"
    },
    {
      "inputs": [
        {
          "internalType": "uint256",
          "name": "",
          "type": "uint256"
        }
      ],
      "name": "intelligenceData",
      "outputs": [
        {
          "internalType": "string",
          "name": "",
          "type": "string"
        }
      ],
      "stateMutability": "view",
      "type": "function"
    },
    {
      "inputs": [
        {
          "internalType": "uint256",
          "name": "_targetId",
          "type": "uint256"
        }
      ],
      "name": "setTacticalTarget",
      "outputs": [],
      "stateMutability": "nonpayable",
      "type": "function"
    },
    {
      "inputs": [],
      "name": "syncCount",
      "outputs": [
        {
          "internalType": "uint256",
          "name": "",
          "type": "uint256"
        }
      ],
      "stateMutability": "view",
      "type": "function"
    },
    {
      "inputs": [
        {
          "internalType": "string",
          "name": "_data",
          "type": "string"
        }
      ],
      "name": "syncIntelligence",
      "outputs": [],
      "stateMutability": "nonpayable",
      "type": "function"
    }
  ],
  "bytecode": "0x608060405234801561001057600080fd5b506108bc806100206000396000f3fe608060405234801561001057600080fd5b506004361061004c5760003560e01c80630a0b86e6146100515780636c26135e1461006d578063c310291c1461009d578063f7bcda10146100bb575b600080fd5b61006b6004803603810190610066919061027a565b6100d7565b005b6100876004803603810190610082919061027a565b610112565b6040516100949190610337565b60405180910390f35b6100a56101b2565b6040516100b29190610368565b60405180910390f35b6100d560048036038101906100d091906104b8565b6101b8565b005b807f36cbb4d8bcb4cdd7abe6491bf62932ce6bf0715ddff61fa0f3b5f3ad2a55b765426040516101079190610368565b60405180910390a250565b6001602052806000526040600020600091509050805461013190610530565b80601f016020809104026020016040519081016040528092919081815260200182805461015d90610530565b80156101aa5780601f1061017f576101008083540402835291602001916101aa565b820191906000526020600020905b81548152906001019060200180831161018d57829003601f168201915b505050505081565b60005481565b6000808154809291906101ca90610590565b919050555080600160008054815260200190815260200160002090816101f09190610784565b506000547f22e00aec6971cea553fc51e89f29f6bcb0624b403d037e8e9e135216a62c88c98242604051610225929190610856565b60405180910390a250565b6000604051905090565b600080fd5b600080fd5b6000819050919050565b61025781610244565b811461026257600080fd5b50565b6000813590506102748161024e565b92915050565b6000602082840312156102905761028f61023a565b5b600061029e84828501610265565b91505092915050565b600081519050919050565b600082825260208201905092915050565b60005b838110156102e15780820151818401526020810190506102c6565b60008484015250505050565b6000601f19601f8301169050919050565b6000610309826102a7565b61031381856102b2565b93506103238185602086016102c3565b61032c816102ed565b840191505092915050565b6000602082019050818103600083015261035181846102fe565b905092915050565b61036281610244565b82525050565b600060208201905061037d6000830184610359565b92915050565b600080fd5b600080fd5b7f4e487b7100000000000000000000000000000000000000000000000000000000600052604160045260246000fd5b6103c5826102ed565b810181811067ffffffffffffffff821117156103e4576103e361038d565b5b80604052505050565b60006103f7610230565b905061040382826103bc565b919050565b600067ffffffffffffffff8211156104235761042261038d565b5b61042c826102ed565b9050602081019050919050565b82818337600083830152505050565b600061045b61045684610408565b6103ed565b90508281526020810184848401111561047757610476610388565b5b610482848285610439565b509392505050565b600082601f83011261049f5761049e610383565b5b81356104af848260208601610448565b91505092915050565b6000602082840312156104ce576104cd61023a565b5b600082013567ffffffffffffffff8111156104ec576104eb61023f565b5b6104f88482850161048a565b91505092915050565b7f4e487b7100000000000000000000000000000000000000000000000000000000600052602260045260246000fd5b6000600282049050600182168061054857607f821691505b60208210810361055b5761055a610501565b5b50919050565b7f4e487b7100000000000000000000000000000000000000000000000000000000600052601160045260246000fd5b600061059b82610244565b91507fffffffffffffffffffffffffffffffffffffffffffffffffffffffffffffffff82036105cd576105cc610561565b5b600182019050919050565b60008190508160005260206000209050919050565b60006020601f8301049050919050565b600082821b905092915050565b60006008830261063a7fffffffffffffffffffffffffffffffffffffffffffffffffffffffffffffffff826105fd565b61064486836105fd565b95508019841693508086168417925050509392505050565b6000819050919050565b600061068161067c61067784610244565b61065c565b610244565b9050919050565b6000819050919050565b61069b83610666565b6106af6106a782610688565b84845461060a565b825550505050565b600090565b6106c46106b7565b6106cf818484610692565b505050565b5b818110156106f3576106e86000826106bc565b6001810190506106d5565b5050565b601f82111561073857610709816105d8565b610712846105ed565b81016020851015610721578190505b61073561072d856105ed565b8301826106d4565b50505b505050565b600082821c905092915050565b600061075b6000198460080261073d565b1980831691505092915050565b6000610774838361074a565b9150826002028217905092915050565b61078d826102a7565b67ffffffffffffffff8111156107a6576107a561038d565b5b6107b08254610530565b6107bb8282856106f7565b600060209050601f8311600181146107ee57600084156107dc578287015190505b6107e68582610768565b86555061084e565b601f1984166107fc866105d8565b60005b82811015610824578489015182556001820191506020850194506020810190506107ff565b86831015610841578489015161083d601f89168261074a565b8355505b6001600288020188555050505b505050505050565b6000604082019050818103600083015261087081856102fe565b905061087f6020830184610359565b939250505056fea2646970667358221220f35d5dc92e7d511edcf876eb333dc6830a1e39365c8e6207b08f5d89ec6195e364736f6c63430008120033",
  "linkReferences": {},
  "deployedLinkReferences": {}
}