{
  "_format": "hh-sol-artifact-1",
  "contractName": "MDCNTactical",
  "sourceName": "Contracts/MDCNTatical.sol",
  "abi": [
    {
      "anonymous": false,
      "inputs": [
        {
          "indexed": true,
          "internalType": "uint256",
          "name": "assetId",
          "type": "uint256"
        },
        {
          "indexed": false,
          "internalType": "string",
          "name": "status",
          "type": "string"
        },
        {
          "indexed": false,
          "internalType": "uint256",
          "name": "timestamp",
          "type": "uint256"
        }
      ],
      "name": "AssetMaintenanceUpdated",
      "type": "event"
    },
    {
      "anonymous": false,
      "inputs": [
        {
          "indexed": true,
          "internalType": "uint256",
          "name": "id",
          "type": "uint256"
        },
        {
          "indexed": false,
          "internalType": "string",
          "name": "data",
          "type": "string"
        },
        {
          "indexed": false,
          "internalType": "uint256",
          "name": "timestamp",
          "type": "uint256"
        }
      ],
      "name": "FieldDataLogged",
      "type": "event"
    },
    {
      "inputs": [
        {
          "internalType": "uint256",
          "name": "",
          "type": "uint256"
        }
      ],
      "name": "assetMaintenance",
      "outputs": [
        {
          "internalType": "string",
          "name": "",
          "type": "string"
        }
      ],
      "stateMutability": "view",
      "type": "function"
    },
    {
      "inputs": [],
      "name": "dataLogCount",
      "outputs": [
        {
          "internalType": "uint256",
          "name": "",
          "type": "uint256"
        }
      ],
      "stateMutability": "view",
      "type": "function"
    },
    {
      "inputs": [
        {
          "internalType": "uint256",
          "name": "",
          "type": "uint256"
        }
      ],
      "name": "fieldData",
      "outputs": [
        {
          "internalType": "string",
          "name": "",
          "type": "string"
        }
      ],
      "stateMutability": "view",
      "type": "function"
    },
    {
      "inputs": [
        {
          "internalType": "string",
          "name": "_data",
          "type": "string"
        }
      ],
      "name": "logFieldData",
      "outputs": [],
      "stateMutability": "nonpayable",
      "type": "function"
    },
    {
      "inputs": [
        {
          "internalType": "uint256",
          "name": "_assetId",
          "type": "uint256"
        },
        {
          "internalType": "string",
          "name": "_status",
          "type": "string"
        }
      ],
      "name": "updateAssetMaintenance",
      "outputs": [],
      "stateMutability": "nonpayable",
      "type": "function"
    }
  ],
  "bytecode": "0x608060405234801561001057600080fd5b50610a17806100206000396000f3fe608060405234801561001057600080fd5b50600436106100575760003560e01c806348a9940d1461005c5780634c7931571461008c578063539abb6f146100aa578063b9a4d6b6146100c6578063fae1d684146100e2575b600080fd5b61007660048036038101906100719190610379565b610112565b6040516100839190610436565b60405180910390f35b6100946101b2565b6040516100a19190610467565b60405180910390f35b6100c460048036038101906100bf91906105b7565b6101b8565b005b6100e060048036038101906100db9190610600565b610230565b005b6100fc60048036038101906100f79190610379565b61028f565b6040516101099190610436565b60405180910390f35b600160205280600052604060002060009150905080546101319061068b565b80601f016020809104026020016040519081016040528092919081815260200182805461015d9061068b565b80156101aa5780601f1061017f576101008083540402835291602001916101aa565b820191906000526020600020905b81548152906001019060200180831161018d57829003601f168201915b505050505081565b60005481565b6000808154809291906101ca906106eb565b919050555080600160008054815260200190815260200160002090816101f091906108df565b506000547f8e25a5a982912b75f4a8e2a4aa577801eac0d97a61a2a0862edc6c63f5da3e8082426040516102259291906109b1565b60405180910390a250565b8060026000848152602001908152602001600020908161025091906108df565b50817f4b4fa0b408e3acfe1d746467bca2a30f9fe0fd185082ba58a90ca2db44446b2b82426040516102839291906109b1565b60405180910390a25050565b600260205280600052604060002060009150905080546102ae9061068b565b80601f01602080910402602001604051908101604052809291908181526020018280546102da9061068b565b80156103275780601f106102fc57610100808354040283529160200191610327565b820191906000526020600020905b81548152906001019060200180831161030a57829003601f168201915b505050505081565b6000604051905090565b600080fd5b600080fd5b6000819050919050565b61035681610343565b811461036157600080fd5b50565b6000813590506103738161034d565b92915050565b60006020828403121561038f5761038e610339565b5b600061039d84828501610364565b91505092915050565b600081519050919050565b600082825260208201905092915050565b60005b838110156103e05780820151818401526020810190506103c5565b60008484015250505050565b6000601f19601f8301169050919050565b6000610408826103a6565b61041281856103b1565b93506104228185602086016103c2565b61042b816103ec565b840191505092915050565b6000602082019050818103600083015261045081846103fd565b905092915050565b61046181610343565b82525050565b600060208201905061047c6000830184610458565b92915050565b600080fd5b600080fd5b7f4e487b7100000000000000000000000000000000000000000000000000000000600052604160045260246000fd5b6104c4826103ec565b810181811067ffffffffffffffff821117156104e3576104e261048c565b5b80604052505050565b60006104f661032f565b905061050282826104bb565b919050565b600067ffffffffffffffff8211156105225761052161048c565b5b61052b826103ec565b9050602081019050919050565b82818337600083830152505050565b600061055a61055584610507565b6104ec565b90508281526020810184848401111561057657610575610487565b5b610581848285610538565b509392505050565b600082601f83011261059e5761059d610482565b5b81356105ae848260208601610547565b91505092915050565b6000602082840312156105cd576105cc610339565b5b600082013567ffffffffffffffff8111156105eb576105ea61033e565b5b6105f784828501610589565b91505092915050565b6000806040838503121561061757610616610339565b5b600061062585828601610364565b925050602083013567ffffffffffffffff8111156106465761064561033e565b5b61065285828601610589565b9150509250929050565b7f4e487b7100000000000000000000000000000000000000000000000000000000600052602260045260246000fd5b600060028204905060018216806106a357607f821691505b6020821081036106b6576106b561065c565b5b50919050565b7f4e487b7100000000000000000000000000000000000000000000000000000000600052601160045260246000fd5b60006106f682610343565b91507fffffffffffffffffffffffffffffffffffffffffffffffffffffffffffffffff8203610728576107276106bc565b5b600182019050919050565b60008190508160005260206000209050919050565b60006020601f8301049050919050565b600082821b905092915050565b6000600883026107957fffffffffffffffffffffffffffffffffffffffffffffffffffffffffffffffff82610758565b61079f8683610758565b95508019841693508086168417925050509392505050565b6000819050919050565b60006107dc6107d76107d284610343565b6107b7565b610343565b9050919050565b6000819050919050565b6107f6836107c1565b61080a610802826107e3565b848454610765565b825550505050565b600090565b61081f610812565b61082a8184846107ed565b505050565b5b8181101561084e57610843600082610817565b600181019050610830565b5050565b601f8211156108935761086481610733565b61086d84610748565b8101602085101561087c578190505b61089061088885610748565b83018261082f565b50505b505050565b600082821c905092915050565b60006108b660001984600802610898565b1980831691505092915050565b60006108cf83836108a5565b9150826002028217905092915050565b6108e8826103a6565b67ffffffffffffffff8111156109015761090061048c565b5b61090b825461068b565b610916828285610852565b600060209050601f8311600181146109495760008415610937578287015190505b61094185826108c3565b8655506109a9565b601f19841661095786610733565b60005b8281101561097f5784890151825560018201915060208501945060208101905061095a565b8683101561099c5784890151610998601f8916826108a5565b8355505b6001600288020188555050505b505050505050565b600060408201905081810360008301526109cb81856103fd565b90506109da6020830184610458565b939250505056fea26469706673582212202fab8b2deddffdf3e70e8c1af7f203342564bceb0523bc8f61459290b2c518fd64736f6c63430008120033",
  "linkReferences": {},
  "deployedLinkReferences": {}
}