{
  "_format": "hh-sol-artifact-1",
  "contractName": "MDCNTactical",
  "sourceName": "Contracts/MDCNTactical.sol",
  "abi": [
    {
      "anonymous": false,
      "inputs": [
        {
          "indexed": true,
          "internalType": "uint256",
          "name": "id",
          "type": "uint256"
        },
        {
          "indexed": true,
          "internalType": "address",
          "name": "ackBy",
          "type": "address"
        },
        {
          "indexed": false,
          "internalType": "uint256",
          "name": "timestamp",
          "type": "uint256"
        }
      ],
      "name": "FieldDataAcknowledged",
      "type": "event"
    },
    {
      "anonymous": false,
      "inputs": [
        {
          "indexed": true,
          "internalType": "uint256",
          "name": "id",
          "type": "uint256"
        },
        {
          "indexed": true,
          "internalType": "address",
          "name": "sender",
          "type": "address"
        },
        {
          "indexed": true,
          "internalType": "address",
          "name": "recipient",
          "type": "address"
        },
        {
          "indexed": false,
          "internalType": "string",
          "name": "data",
          "type": "string"
        },
        {
          "indexed": false,
          "internalType": "uint256",
          "name": "timestamp",
          "type": "uint256"
        }
      ],
      "name": "FieldDataLogged",
      "type": "event"
    },
    {
      "anonymous": false,
      "inputs": [
        {
          "indexed": true,
          "internalType": "uint256",
          "name": "id",
          "type": "uint256"
        },
        {
          "indexed": true,
          "internalType": "address",
          "name": "ackBy",
          "type": "address"
        },
        {
          "indexed": false,
          "internalType": "uint256",
          "name": "timestamp",
          "type": "uint256"
        }
      ],
      "name": "MaintenanceAcknowledged",
      "type": "event"
    },
    {
      "anonymous": false,
      "inputs": [
        {
          "indexed": true,
          "internalType": "uint256",
          "name": "id",
          "type": "uint256"
        },
        {
          "indexed": true,
          "internalType": "address",
          "name": "sender",
          "type": "address"
        },
        {
          "indexed": true,
          "internalType": "address",
          "name": "recipient",
          "type": "address"
        },
        {
          "indexed": false,
          "internalType": "uint256",
          "name": "assetId",
          "type": "uint256"
        },
        {
          "indexed": false,
          "internalType": "string",
          "name": "status",
          "type": "string"
        },
        {
          "indexed": false,
          "internalType": "uint256",
          "name": "timestamp",
          "type": "uint256"
        }
      ],
      "name": "MaintenanceUpdated",
      "type": "event"
    },
    {
      "inputs": [
        {
          "internalType": "uint256",
          "name": "_id",
          "type": "uint256"
        }
      ],
      "name": "acknowledgeFieldData",
      "outputs": [],
      "stateMutability": "nonpayable",
      "type": "function"
    },
    {
      "inputs": [
        {
          "internalType": "uint256",
          "name": "_id",
          "type": "uint256"
        }
      ],
      "name": "acknowledgeMaintenance",
      "outputs": [],
      "stateMutability": "nonpayable",
      "type": "function"
    },
    {
      "inputs": [],
      "name": "fieldCount",
      "outputs": [
        {
          "internalType": "uint256",
          "name": "",
          "type": "uint256"
        }
      ],
      "stateMutability": "view",
      "type": "function"
    },
    {
      "inputs": [
        {
          "internalType": "uint256",
          "name": "",
          "type": "uint256"
        }
      ],
      "name": "fieldData",
      "outputs": [
        {
          "internalType": "uint256",
          "name": "id",
          "type": "uint256"
        },
        {
          "internalType": "address",
          "name": "sender",
          "type": "address"
        },
        {
          "internalType": "address",
          "name": "recipient",
          "type": "address"
        },
        {
          "internalType": "string",
          "name": "data",
          "type": "string"
        },
        {
          "internalType": "uint256",
          "name": "timestamp",
          "type": "uint256"
        },
        {
          "internalType": "bool",
          "name": "acknowledged",
          "type": "bool"
        },
        {
          "internalType": "address",
          "name": "acknowledgedBy",
          "type": "address"
        },
        {
          "internalType": "uint256",
          "name": "acknowledgedTimestamp",
          "type": "uint256"
        }
      ],
      "stateMutability": "view",
      "type": "function"
    },
    {
      "inputs": [
        {
          "internalType": "address",
          "name": "_recipient",
          "type": "address"
        },
        {
          "internalType": "string",
          "name": "_data",
          "type": "string"
        }
      ],
      "name": "logFieldData",
      "outputs": [],
      "stateMutability": "nonpayable",
      "type": "function"
    },
    {
      "inputs": [
        {
          "internalType": "uint8",
          "name": "_recipientGroup",
          "type": "uint8"
        },
        {
          "internalType": "uint8",
          "name": "_branch",
          "type": "uint8"
        },
        {
          "internalType": "string",
          "name": "_data",
          "type": "string"
        }
      ],
      "name": "logFieldDataLegacy",
      "outputs": [],
      "stateMutability": "nonpayable",
      "type": "function"
    },
    {
      "inputs": [],
      "name": "maintenanceCount",
      "outputs": [
        {
          "internalType": "uint256",
          "name": "",
          "type": "uint256"
        }
      ],
      "stateMutability": "view",
      "type": "function"
    },
    {
      "inputs": [
        {
          "internalType": "uint256",
          "name": "",
          "type": "uint256"
        }
      ],
      "name": "maintenanceData",
      "outputs": [
        {
          "internalType": "uint256",
          "name": "id",
          "type": "uint256"
        },
        {
          "internalType": "address",
          "name": "sender",
          "type": "address"
        },
        {
          "internalType": "address",
          "name": "recipient",
          "type": "address"
        },
        {
          "internalType": "uint256",
          "name": "assetId",
          "type": "uint256"
        },
        {
          "internalType": "string",
          "name": "status",
          "type": "string"
        },
        {
          "internalType": "uint256",
          "name": "timestamp",
          "type": "uint256"
        },
        {
          "internalType": "bool",
          "name": "acknowledged",
          "type": "bool"
        },
        {
          "internalType": "address",
          "name": "acknowledgedBy",
          "type": "address"
        },
        {
          "internalType": "uint256",
          "name": "acknowledgedTimestamp",
          "type": "uint256"
        }
      ],
      "stateMutability": "view",
      "type": "function"
    },
    {
      "inputs": [
        {
          "internalType": "address",
          "name": "_recipient",
          "type": "address"
        },
        {
          "internalType": "uint256",
          "name": "_assetId",
          "type": "uint256"
        },
        {
          "internalType": "string",
          "name": "_status",
          "type": "string"
        }
      ],
      "name": "updateMaintenance",
      "outputs": [],
      "stateMutability": "nonpayable",
      "type": "function"
    },
    {
      "inputs": [
        {
          "internalType": "uint8",
          "name": "_recipientGroup",
          "type": "uint8"
        },
        {
          "internalType": "uint8",
          "name": "_branch",
          "type": "uint8"
        },
        {
          "internalType": "uint256",
          "name": "_assetId",
          "type": "uint256"
        },
        {
          "internalType": "string",
          "name": "_status",
          "type": "string"
        }
      ],
      "name": "updateMaintenanceLegacy",
      "outputs": [],
      "stateMutability": "nonpayable",
      "type": "function"
    }
  ],
  "bytecode": "0x608060405234801561001057600080fd5b50611c8c806100206000396000f3fe608060405234801561001057600080fd5b506004361061009e5760003560e01c80639aaf2aea116100665780639aaf2aea14610168578063a866274514610184578063bb485bbd146101a0578063d457a212146101be578063d868da0d146101da5761009e565b80631faa0443146100a3578063329a8cb8146100db57806348a9940d146100f9578063538a5bec14610130578063904a20c71461014c575b600080fd5b6100bd60048036038101906100b891906114fb565b6101f6565b6040516100d299989796959493929190611848565b60405180910390f35b6100e3610339565b6040516100f091906117a8565b60405180910390f35b610113600480360381019061010e91906114fb565b61033f565b6040516101279897969594939291906117c3565b60405180910390f35b61014a6004803603810190610145919061158b565b61047c565b005b61016660048036038101906101619190611440565b6106fc565b005b610182600480360381019061017d91906114fb565b61094b565b005b61019e60048036038101906101999190611494565b610bb6565b005b6101a8610e1b565b6040516101b591906117a8565b60405180910390f35b6101d860048036038101906101d39190611524565b610e21565b005b6101f460048036038101906101ef91906114fb565b61108b565b005b60036020528060005260406000206000915090508060000154908060010160009054906101000a900473ffffffffffffffffffffffffffffffffffffffff16908060020160009054906101000a900473ffffffffffffffffffffffffffffffffffffffff169080600301549080600401805461027190611a23565b80601f016020809104026020016040519081016040528092919081815260200182805461029d90611a23565b80156102ea5780601f106102bf576101008083540402835291602001916102ea565b820191906000526020600020905b8154815290600101906020018083116102cd57829003601f168201915b5050505050908060050154908060060160009054906101000a900460ff16908060060160019054906101000a900473ffffffffffffffffffffffffffffffffffffffff16908060070154905089565b60015481565b60026020528060005260406000206000915090508060000154908060010160009054906101000a900473ffffffffffffffffffffffffffffffffffffffff16908060020160009054906101000a900473ffffffffffffffffffffffffffffffffffffffff16908060030180546103b490611a23565b80601f01602080910402602001604051908101604052809291908181526020018280546103e090611a23565b801561042d5780601f106104025761010080835404028352916020019161042d565b820191906000526020600020905b81548152906001019060200180831161041057829003601f168201915b5050505050908060040154908060050160009054906101000a900460ff16908060050160019054906101000a900473ffffffffffffffffffffffffffffffffffffffff16908060060154905088565b6001600081548092919061048f90611a86565b91905055506000731234567890123456789012345678901234567890905060405180610120016040528060015481526020013373ffffffffffffffffffffffffffffffffffffffff1681526020018273ffffffffffffffffffffffffffffffffffffffff168152602001848152602001838152602001428152602001600015158152602001600073ffffffffffffffffffffffffffffffffffffffff16815260200160008152506003600060015481526020019081526020016000206000820151816000015560208201518160010160006101000a81548173ffffffffffffffffffffffffffffffffffffffff021916908373ffffffffffffffffffffffffffffffffffffffff16021790555060408201518160020160006101000a81548173ffffffffffffffffffffffffffffffffffffffff021916908373ffffffffffffffffffffffffffffffffffffffff1602179055506060820151816003015560808201518160040190805190602001906106099291906112f6565b5060a0820151816005015560c08201518160060160006101000a81548160ff02191690831515021790555060e08201518160060160016101000a81548173ffffffffffffffffffffffffffffffffffffffff021916908373ffffffffffffffffffffffffffffffffffffffff16021790555061010082015181600701559050508073ffffffffffffffffffffffffffffffffffffffff163373ffffffffffffffffffffffffffffffffffffffff166001547f52eb0fd50944962a3441837a9d22481ed8fe3b66dbdff56ba4cd0cc3206f31018686426040516106ed939291906118dc565b60405180910390a45050505050565b60008081548092919061070e90611a86565b919050555060405180610100016040528060005481526020013373ffffffffffffffffffffffffffffffffffffffff1681526020018373ffffffffffffffffffffffffffffffffffffffff168152602001828152602001428152602001600015158152602001600073ffffffffffffffffffffffffffffffffffffffff168152602001600081525060026000805481526020019081526020016000206000820151816000015560208201518160010160006101000a81548173ffffffffffffffffffffffffffffffffffffffff021916908373ffffffffffffffffffffffffffffffffffffffff16021790555060408201518160020160006101000a81548173ffffffffffffffffffffffffffffffffffffffff021916908373ffffffffffffffffffffffffffffffffffffffff160217905550606082015181600301908051906020019061085e9291906112f6565b506080820151816004015560a08201518160050160006101000a81548160ff02191690831515021790555060c08201518160050160016101000a81548173ffffffffffffffffffffffffffffffffffffffff021916908373ffffffffffffffffffffffffffffffffffffffff16021790555060e082015181600601559050508173ffffffffffffffffffffffffffffffffffffffff163373ffffffffffffffffffffffffffffffffffffffff166000547f1339c36be0c7777e1a7f37a018eec2cb85f8a49280927bc8a6e0c697e40b1daa844260405161093f9291906116f8565b60405180910390a45050565b60006002600083815260200190815260200160002090506000816000015414156109aa576040517f08c379a00000000000000000000000000000000000000000000000000000000081526004016109a190611748565b60405180910390fd5b8060050160009054906101000a900460ff16156109fc576040517f08c379a00000000000000000000000000000000000000000000000000000000081526004016109f390611788565b60405180910390fd5b73123456789012345678901234567890123456789073ffffffffffffffffffffffffffffffffffffffff168160020160009054906101000a900473ffffffffffffffffffffffffffffffffffffffff1673ffffffffffffffffffffffffffffffffffffffff1614610afa578060020160009054906101000a900473ffffffffffffffffffffffffffffffffffffffff1673ffffffffffffffffffffffffffffffffffffffff163373ffffffffffffffffffffffffffffffffffffffff1614610af9576040517f08c379a0000000000000000000000000000000000000000000000000000000008152600401610af090611768565b60405180910390fd5b5b60018160050160006101000a81548160ff021916908315150217905550338160050160016101000a81548173ffffffffffffffffffffffffffffffffffffffff021916908373ffffffffffffffffffffffffffffffffffffffff1602179055504281600601819055503373ffffffffffffffffffffffffffffffffffffffff16827f75939183859094b8a85ca43a2e4b391b8d66e4fe5fe3d3edc5fe613a19dee34d42604051610baa91906117a8565b60405180910390a35050565b60016000815480929190610bc990611a86565b919050555060405180610120016040528060015481526020013373ffffffffffffffffffffffffffffffffffffffff1681526020018473ffffffffffffffffffffffffffffffffffffffff168152602001838152602001828152602001428152602001600015158152602001600073ffffffffffffffffffffffffffffffffffffffff16815260200160008152506003600060015481526020019081526020016000206000820151816000015560208201518160010160006101000a81548173ffffffffffffffffffffffffffffffffffffffff021916908373ffffffffffffffffffffffffffffffffffffffff16021790555060408201518160020160006101000a81548173ffffffffffffffffffffffffffffffffffffffff021916908373ffffffffffffffffffffffffffffffffffffffff160217905550606082015181600301556080820151816004019080519060200190610d2a9291906112f6565b5060a0820151816005015560c08201518160060160006101000a81548160ff02191690831515021790555060e08201518160060160016101000a81548173ffffffffffffffffffffffffffffffffffffffff021916908373ffffffffffffffffffffffffffffffffffffffff16021790555061010082015181600701559050508273ffffffffffffffffffffffffffffffffffffffff163373ffffffffffffffffffffffffffffffffffffffff166001547f52eb0fd50944962a3441837a9d22481ed8fe3b66dbdff56ba4cd0cc3206f3101858542604051610e0e939291906118dc565b60405180910390a4505050565b60005481565b600080815480929190610e3390611a86565b91905055506000731234567890123456789012345678901234567890905060405180610100016040528060005481526020013373ffffffffffffffffffffffffffffffffffffffff1681526020018273ffffffffffffffffffffffffffffffffffffffff168152602001838152602001428152602001600015158152602001600073ffffffffffffffffffffffffffffffffffffffff168152602001600081525060026000805481526020019081526020016000206000820151816000015560208201518160010160006101000a81548173ffffffffffffffffffffffffffffffffffffffff021916908373ffffffffffffffffffffffffffffffffffffffff16021790555060408201518160020160006101000a81548173ffffffffffffffffffffffffffffffffffffffff021916908373ffffffffffffffffffffffffffffffffffffffff1602179055506060820151816003019080519060200190610f9c9291906112f6565b506080820151816004015560a08201518160050160006101000a81548160ff02191690831515021790555060c08201518160050160016101000a81548173ffffffffffffffffffffffffffffffffffffffff021916908373ffffffffffffffffffffffffffffffffffffffff16021790555060e082015181600601559050508073ffffffffffffffffffffffffffffffffffffffff163373ffffffffffffffffffffffffffffffffffffffff166000547f1339c36be0c7777e1a7f37a018eec2cb85f8a49280927bc8a6e0c697e40b1daa854260405161107d9291906116f8565b60405180910390a450505050565b60006003600083815260200190815260200160002090506000816000015414156110ea576040517f08c379a00000000000000000000000000000000000000000000000000000000081526004016110e190611728565b60405180910390fd5b8060060160009054906101000a900460ff161561113c576040517f08c379a000000000000000000000000000000000000000000000000000000000815260040161113390611788565b60405180910390fd5b73123456789012345678901234567890123456789073ffffffffffffffffffffffffffffffffffffffff168160020160009054906101000a900473ffffffffffffffffffffffffffffffffffffffff1673ffffffffffffffffffffffffffffffffffffffff161461123a578060020160009054906101000a900473ffffffffffffffffffffffffffffffffffffffff1673ffffffffffffffffffffffffffffffffffffffff163373ffffffffffffffffffffffffffffffffffffffff1614611239576040517f08c379a000000000000000000000000000000000000000000000000000000000815260040161123090611768565b60405180910390fd5b5b60018160060160006101000a81548160ff021916908315150217905550338160060160016101000a81548173ffffffffffffffffffffffffffffffffffffffff021916908373ffffffffffffffffffffffffffffffffffffffff1602179055504281600701819055503373ffffffffffffffffffffffffffffffffffffffff16827f2503413f5a2527174d68ea0dc6cbacbf401a79567b7bf37358248b02b1372cf7426040516112ea91906117a8565b60405180910390a35050565b82805461130290611a23565b90600052602060002090601f016020900481019282611324576000855561136b565b82601f1061133d57805160ff191683800117855561136b565b8280016001018555821561136b579182015b8281111561136a57825182559160200191906001019061134f565b5b509050611378919061137c565b5090565b5b8082111561139557600081600090555060010161137d565b5090565b60006113ac6113a78461193f565b61191a565b9050828152602081018484840111156113c457600080fd5b6113cf8482856119e1565b509392505050565b6000813590506113e681611c11565b92915050565b600082601f8301126113fd57600080fd5b813561140d848260208601611399565b91505092915050565b60008135905061142581611c28565b92915050565b60008135905061143a81611c3f565b92915050565b6000806040838503121561145357600080fd5b6000611461858286016113d7565b925050602083013567ffffffffffffffff81111561147e57600080fd5b61148a858286016113ec565b9150509250929050565b6000806000606084860312156114a957600080fd5b60006114b7868287016113d7565b93505060206114c886828701611416565b925050604084013567ffffffffffffffff8111156114e557600080fd5b6114f1868287016113ec565b9150509250925092565b60006020828403121561150d57600080fd5b600061151b84828501611416565b91505092915050565b60008060006060848603121561153957600080fd5b60006115478682870161142b565b93505060206115588682870161142b565b925050604084013567ffffffffffffffff81111561157557600080fd5b611581868287016113ec565b9150509250925092565b600080600080608085870312156115a157600080fd5b60006115af8782880161142b565b94505060206115c08782880161142b565b93505060406115d187828801611416565b925050606085013567ffffffffffffffff8111156115ee57600080fd5b6115fa878288016113ec565b91505092959194509250565b61160f8161198c565b82525050565b61161e8161199e565b82525050565b600061162f82611970565b611639818561197b565b93506116498185602086016119f0565b61165281611b5c565b840191505092915050565b600061166a601d8361197b565b915061167582611b6d565b602082019050919050565b600061168d60148361197b565b915061169882611b96565b602082019050919050565b60006116b0601a8361197b565b91506116bb82611bbf565b602082019050919050565b60006116d360148361197b565b91506116de82611be8565b602082019050919050565b6116f2816119ca565b82525050565b600060408201905081810360008301526117128185611624565b905061172160208301846116e9565b9392505050565b600060208201905081810360008301526117418161165d565b9050919050565b6000602082019050818103600083015261176181611680565b9050919050565b60006020820190508181036000830152611781816116a3565b9050919050565b600060208201905081810360008301526117a1816116c6565b9050919050565b60006020820190506117bd60008301846116e9565b92915050565b6000610100820190506117d9600083018b6116e9565b6117e6602083018a611606565b6117f36040830189611606565b81810360608301526118058188611624565b905061181460808301876116e9565b61182160a0830186611615565b61182e60c0830185611606565b61183b60e08301846116e9565b9998505050505050505050565b60006101208201905061185e600083018c6116e9565b61186b602083018b611606565b611878604083018a611606565b61188560608301896116e9565b81810360808301526118978188611624565b90506118a660a08301876116e9565b6118b360c0830186611615565b6118c060e0830185611606565b6118ce6101008301846116e9565b9a9950505050505050505050565b60006060820190506118f160008301866116e9565b81810360208301526119038185611624565b905061191260408301846116e9565b949350505050565b6000611924611935565b90506119308282611a55565b919050565b6000604051905090565b600067ffffffffffffffff82111561195a57611959611b2d565b5b61196382611b5c565b9050602081019050919050565b600081519050919050565b600082825260208201905092915050565b6000611997826119aa565b9050919050565b60008115159050919050565b600073ffffffffffffffffffffffffffffffffffffffff82169050919050565b6000819050919050565b600060ff82169050919050565b82818337600083830152505050565b60005b83811015611a0e5780820151818401526020810190506119f3565b83811115611a1d576000848401525b50505050565b60006002820490506001821680611a3b57607f821691505b60208210811415611a4f57611a4e611afe565b5b50919050565b611a5e82611b5c565b810181811067ffffffffffffffff82111715611a7d57611a7c611b2d565b5b80604052505050565b6000611a91826119ca565b91507fffffffffffffffffffffffffffffffffffffffffffffffffffffffffffffffff821415611ac457611ac3611acf565b5b600182019050919050565b7f4e487b7100000000000000000000000000000000000000000000000000000000600052601160045260246000fd5b7f4e487b7100000000000000000000000000000000000000000000000000000000600052602260045260246000fd5b7f4e487b7100000000000000000000000000000000000000000000000000000000600052604160045260246000fd5b6000601f19601f8301169050919050565b7f4d61696e74656e616e6365206d657373616765206e6f7420666f756e64000000600082015250565b7f4669656c642064617461206e6f7420666f756e64000000000000000000000000600082015250565b7f4e6f742074686520696e74656e64656420726563697069656e74000000000000600082015250565b7f416c72656164792061636b6e6f776c6564676564000000000000000000000000600082015250565b611c1a8161198c565b8114611c2557600080fd5b50565b611c31816119ca565b8114611c3c57600080fd5b50565b611c48816119d4565b8114611c5357600080fd5b5056fea2646970667358221220230ffaf3bb3f005aa5b37803016feb6b58c6ac6733f05e191cd2781f9dd4e46164736f6c63430008040033",
  "linkReferences": {},
  "deployedLinkReferences": {}
}