{
  "_format": "hh-sol-artifact-1",
  "contractName": "MDCNCommand",
  "sourceName": "Contracts/MDCNCommand.sol",
  "abi": [
    {
      "inputs": [],
      "stateMutability": "nonpayable",
      "type": "constructor"
    },
    {
      "anonymous": false,
      "inputs": [
        {
          "indexed": true,
          "internalType": "uint256",
          "name": "id",
          "type": "uint256"
        },
        {
          "indexed": true,
          "internalType": "address",
          "name": "executor",
          "type": "address"
        },
        {
          "indexed": false,
          "internalType": "uint256",
          "name": "timestamp",
          "type": "uint256"
        }
      ],
      "name": "CommandExecuted",
      "type": "event"
    },
    {
      "anonymous": false,
      "inputs": [
        {
          "indexed": true,
          "internalType": "uint256",
          "name": "id",
          "type": "uint256"
        },
        {
          "indexed": true,
          "internalType": "address",
          "name": "sender",
          "type": "address"
        },
        {
          "indexed": false,
          "internalType": "uint8",
          "name": "layer",
          "type": "uint8"
        },
        {
          "indexed": false,
          "internalType": "string",
          "name": "commandText",
          "type": "string"
        },
        {
          "indexed": false,
          "internalType": "uint256",
          "name": "timestamp",
          "type": "uint256"
        }
      ],
      "name": "CommandSent",
      "type": "event"
    },
    {
      "anonymous": false,
      "inputs": [
        {
          "indexed": true,
          "internalType": "address",
          "name": "account",
          "type": "address"
        },
        {
          "indexed": false,
          "internalType": "enum MDCNCommand.Role",
          "name": "role",
          "type": "uint8"
        }
      ],
      "name": "RoleAssigned",
      "type": "event"
    },
    {
      "inputs": [
        {
          "internalType": "address",
          "name": "_account",
          "type": "address"
        },
        {
          "internalType": "enum MDCNCommand.Role",
          "name": "_role",
          "type": "uint8"
        }
      ],
      "name": "assignRole",
      "outputs": [],
      "stateMutability": "nonpayable",
      "type": "function"
    },
    {
      "inputs": [],
      "name": "commandCount",
      "outputs": [
        {
          "internalType": "uint256",
          "name": "",
          "type": "uint256"
        }
      ],
      "stateMutability": "view",
      "type": "function"
    },
    {
      "inputs": [
        {
          "internalType": "uint256",
          "name": "",
          "type": "uint256"
        }
      ],
      "name": "commands",
      "outputs": [
        {
          "internalType": "uint256",
          "name": "id",
          "type": "uint256"
        },
        {
          "internalType": "address",
          "name": "sender",
          "type": "address"
        },
        {
          "internalType": "uint8",
          "name": "layer",
          "type": "uint8"
        },
        {
          "internalType": "string",
          "name": "commandText",
          "type": "string"
        },
        {
          "internalType": "uint256",
          "name": "timestamp",
          "type": "uint256"
        },
        {
          "internalType": "bool",
          "name": "executed",
          "type": "bool"
        }
      ],
      "stateMutability": "view",
      "type": "function"
    },
    {
      "inputs": [
        {
          "internalType": "uint256",
          "name": "_commandId",
          "type": "uint256"
        }
      ],
      "name": "executeCommand",
      "outputs": [],
      "stateMutability": "nonpayable",
      "type": "function"
    },
    {
      "inputs": [
        {
          "internalType": "address",
          "name": "",
          "type": "address"
        }
      ],
      "name": "roles",
      "outputs": [
        {
          "internalType": "enum MDCNCommand.Role",
          "name": "",
          "type": "uint8"
        }
      ],
      "stateMutability": "view",
      "type": "function"
    },
    {
      "inputs": [
        {
          "internalType": "uint8",
          "name": "_layer",
          "type": "uint8"
        },
        {
          "internalType": "string",
          "name": "_commandText",
          "type": "string"
        }
      ],
      "name": "sendCommand",
      "outputs": [],
      "stateMutability": "nonpayable",
      "type": "function"
    }
  ],
  "bytecode": "0x60806040523480156200001157600080fd5b506001600260003373ffffffffffffffffffffffffffffffffffffffff1673ffffffffffffffffffffffffffffffffffffffff16815260200190815260200160002060006101000a81548160ff02191690836003811115620000785762000077620000d4565b5b02179055503373ffffffffffffffffffffffffffffffffffffffff167f4ac36fa53f167ceb85964be512e01de2a3b8bdb9862f917da079deeeff689b386001604051620000c6919062000154565b60405180910390a262000171565b7f4e487b7100000000000000000000000000000000000000000000000000000000600052602160045260246000fd5b60048110620001175762000116620000d4565b5b50565b60008190506200012a8262000103565b919050565b60006200013c826200011a565b9050919050565b6200014e816200012f565b82525050565b60006020820190506200016b600083018462000143565b92915050565b6112f480620001816000396000f3fe608060405234801561001057600080fd5b50600436106100625760003560e01c806311438b3814610067578063510ba9971461009c578063630a195b146100b857806379bac224146100d457806399374642146100f2578063cb100d9714610122575b600080fd5b610081600480360381019061007c91906108a7565b61013e565b604051610093969594939291906109eb565b60405180910390f35b6100b660048036038101906100b19190610bb4565b61023c565b005b6100d260048036038101906100cd9190610c61565b610467565b005b6100dc610657565b6040516100e99190610ca1565b60405180910390f35b61010c60048036038101906101079190610cbc565b61065d565b6040516101199190610d60565b60405180910390f35b61013c600480360381019061013791906108a7565b61067d565b005b60016020528060005260406000206000915090508060000154908060010160009054906101000a900473ffffffffffffffffffffffffffffffffffffffff16908060010160149054906101000a900460ff16908060020180546101a090610daa565b80601f01602080910402602001604051908101604052809291908181526020018280546101cc90610daa565b80156102195780601f106101ee57610100808354040283529160200191610219565b820191906000526020600020905b8154815290600101906020018083116101fc57829003601f168201915b5050505050908060030154908060040160009054906101000a900460ff16905086565b8160ff16600260003373ffffffffffffffffffffffffffffffffffffffff1673ffffffffffffffffffffffffffffffffffffffff16815260200190815260200160002060009054906101000a900460ff16600381111561029f5761029e610ce9565b5b60ff1610156102e3576040517f08c379a00000000000000000000000000000000000000000000000000000000081526004016102da90610e27565b60405180910390fd5b6000808154809291906102f590610e76565b91905055506040518060c0016040528060005481526020013373ffffffffffffffffffffffffffffffffffffffff1681526020018360ff1681526020018281526020014281526020016000151581525060016000805481526020019081526020016000206000820151816000015560208201518160010160006101000a81548173ffffffffffffffffffffffffffffffffffffffff021916908373ffffffffffffffffffffffffffffffffffffffff16021790555060408201518160010160146101000a81548160ff021916908360ff16021790555060608201518160020190816103e0919061106a565b506080820151816003015560a08201518160040160006101000a81548160ff0219169083151502179055509050503373ffffffffffffffffffffffffffffffffffffffff166000547fc1ad6f5e937e4fd5b9e08e5eee2f65a738470f011e20d5b291e450636faf64ae84844260405161045b9392919061113c565b60405180910390a35050565b600180600381111561047c5761047b610ce9565b5b60ff16600260003373ffffffffffffffffffffffffffffffffffffffff1673ffffffffffffffffffffffffffffffffffffffff16815260200190815260200160002060009054906101000a900460ff1660038111156104de576104dd610ce9565b5b60ff1610158061055e5750600160038111156104fd576104fc610ce9565b5b600260003373ffffffffffffffffffffffffffffffffffffffff1673ffffffffffffffffffffffffffffffffffffffff16815260200190815260200160002060009054906101000a900460ff16600381111561055c5761055b610ce9565b5b145b61059d576040517f08c379a0000000000000000000000000000000000000000000000000000000008152600401610594906111c6565b60405180910390fd5b81600260008573ffffffffffffffffffffffffffffffffffffffff1673ffffffffffffffffffffffffffffffffffffffff16815260200190815260200160002060006101000a81548160ff021916908360038111156105ff576105fe610ce9565b5b02179055508273ffffffffffffffffffffffffffffffffffffffff167f4ac36fa53f167ceb85964be512e01de2a3b8bdb9862f917da079deeeff689b388360405161064a9190610d60565b60405180910390a2505050565b60005481565b60026020528060005260406000206000915054906101000a900460ff1681565b600060016000838152602001908152602001600020905060008160000154036106db576040517f08c379a00000000000000000000000000000000000000000000000000000000081526004016106d290611232565b60405180910390fd5b8060010160009054906101000a900473ffffffffffffffffffffffffffffffffffffffff1673ffffffffffffffffffffffffffffffffffffffff163373ffffffffffffffffffffffffffffffffffffffff1614806107ae57508060010160149054906101000a900460ff1660ff16600260003373ffffffffffffffffffffffffffffffffffffffff1673ffffffffffffffffffffffffffffffffffffffff16815260200190815260200160002060009054906101000a900460ff1660038111156107a8576107a7610ce9565b5b60ff1610155b6107ed576040517f08c379a00000000000000000000000000000000000000000000000000000000081526004016107e49061129e565b60405180910390fd5b60018160040160006101000a81548160ff0219169083151502179055503373ffffffffffffffffffffffffffffffffffffffff16827f772a258528b1336fab475feeb3af0aacf3b5ce0de800ad394e92aaa81517f3b2426040516108519190610ca1565b60405180910390a35050565b6000604051905090565b600080fd5b600080fd5b6000819050919050565b61088481610871565b811461088f57600080fd5b50565b6000813590506108a18161087b565b92915050565b6000602082840312156108bd576108bc610867565b5b60006108cb84828501610892565b91505092915050565b6108dd81610871565b82525050565b600073ffffffffffffffffffffffffffffffffffffffff82169050919050565b600061090e826108e3565b9050919050565b61091e81610903565b82525050565b600060ff82169050919050565b61093a81610924565b82525050565b600081519050919050565b600082825260208201905092915050565b60005b8381101561097a57808201518184015260208101905061095f565b60008484015250505050565b6000601f19601f8301169050919050565b60006109a282610940565b6109ac818561094b565b93506109bc81856020860161095c565b6109c581610986565b840191505092915050565b60008115159050919050565b6109e5816109d0565b82525050565b600060c082019050610a0060008301896108d4565b610a0d6020830188610915565b610a1a6040830187610931565b8181036060830152610a2c8186610997565b9050610a3b60808301856108d4565b610a4860a08301846109dc565b979650505050505050565b610a5c81610924565b8114610a6757600080fd5b50565b600081359050610a7981610a53565b92915050565b600080fd5b600080fd5b7f4e487b7100000000000000000000000000000000000000000000000000000000600052604160045260246000fd5b610ac182610986565b810181811067ffffffffffffffff82111715610ae057610adf610a89565b5b80604052505050565b6000610af361085d565b9050610aff8282610ab8565b919050565b600067ffffffffffffffff821115610b1f57610b1e610a89565b5b610b2882610986565b9050602081019050919050565b82818337600083830152505050565b6000610b57610b5284610b04565b610ae9565b905082815260208101848484011115610b7357610b72610a84565b5b610b7e848285610b35565b509392505050565b600082601f830112610b9b57610b9a610a7f565b5b8135610bab848260208601610b44565b91505092915050565b60008060408385031215610bcb57610bca610867565b5b6000610bd985828601610a6a565b925050602083013567ffffffffffffffff811115610bfa57610bf961086c565b5b610c0685828601610b86565b9150509250929050565b610c1981610903565b8114610c2457600080fd5b50565b600081359050610c3681610c10565b92915050565b60048110610c4957600080fd5b50565b600081359050610c5b81610c3c565b92915050565b60008060408385031215610c7857610c77610867565b5b6000610c8685828601610c27565b9250506020610c9785828601610c4c565b9150509250929050565b6000602082019050610cb660008301846108d4565b92915050565b600060208284031215610cd257610cd1610867565b5b6000610ce084828501610c27565b91505092915050565b7f4e487b7100000000000000000000000000000000000000000000000000000000600052602160045260246000fd5b60048110610d2957610d28610ce9565b5b50565b6000819050610d3a82610d18565b919050565b6000610d4a82610d2c565b9050919050565b610d5a81610d3f565b82525050565b6000602082019050610d756000830184610d51565b92915050565b7f4e487b7100000000000000000000000000000000000000000000000000000000600052602260045260246000fd5b60006002820490506001821680610dc257607f821691505b602082108103610dd557610dd4610d7b565b5b50919050565b7f556e617574686f72697a65643a20496e73756666696369656e7420726f6c6500600082015250565b6000610e11601f8361094b565b9150610e1c82610ddb565b602082019050919050565b60006020820190508181036000830152610e4081610e04565b9050919050565b7f4e487b7100000000000000000000000000000000000000000000000000000000600052601160045260246000fd5b6000610e8182610871565b91507fffffffffffffffffffffffffffffffffffffffffffffffffffffffffffffffff8203610eb357610eb2610e47565b5b600182019050919050565b60008190508160005260206000209050919050565b60006020601f8301049050919050565b600082821b905092915050565b600060088302610f207fffffffffffffffffffffffffffffffffffffffffffffffffffffffffffffffff82610ee3565b610f2a8683610ee3565b95508019841693508086168417925050509392505050565b6000819050919050565b6000610f67610f62610f5d84610871565b610f42565b610871565b9050919050565b6000819050919050565b610f8183610f4c565b610f95610f8d82610f6e565b848454610ef0565b825550505050565b600090565b610faa610f9d565b610fb5818484610f78565b505050565b5b81811015610fd957610fce600082610fa2565b600181019050610fbb565b5050565b601f82111561101e57610fef81610ebe565b610ff884610ed3565b81016020851015611007578190505b61101b61101385610ed3565b830182610fba565b50505b505050565b600082821c905092915050565b600061104160001984600802611023565b1980831691505092915050565b600061105a8383611030565b9150826002028217905092915050565b61107382610940565b67ffffffffffffffff81111561108c5761108b610a89565b5b6110968254610daa565b6110a1828285610fdd565b600060209050601f8311600181146110d457600084156110c2578287015190505b6110cc858261104e565b865550611134565b601f1984166110e286610ebe565b60005b8281101561110a578489015182556001820191506020850194506020810190506110e5565b868310156111275784890151611123601f891682611030565b8355505b6001600288020188555050505b505050505050565b60006060820190506111516000830186610931565b81810360208301526111638185610997565b905061117260408301846108d4565b949350505050565b7f556e617574686f72697a65643a20696e73756666696369656e7420726f6c6500600082015250565b60006111b0601f8361094b565b91506111bb8261117a565b602082019050919050565b600060208201905081810360008301526111df816111a3565b9050919050565b7f436f6d6d616e6420646f6573206e6f7420657869737400000000000000000000600082015250565b600061121c60168361094b565b9150611227826111e6565b602082019050919050565b6000602082019050818103600083015261124b8161120f565b9050919050565b7f556e617574686f72697a656420657865637574696f6e00000000000000000000600082015250565b600061128860168361094b565b915061129382611252565b602082019050919050565b600060208201905081810360008301526112b78161127b565b905091905056fea2646970667358221220eb39c178862c211077ea7c9d20ba11d1da2873a954926884985c524a6e1f8af664736f6c63430008120033",
  "linkReferences": {},
  "deployedLinkReferences": {}
}