{
  "_format": "hh-sol-artifact-1",
  "contractName": "MDCNCommand",
  "sourceName": "Contracts/MDCNCommand.sol",
  "abi": [
    {
      "inputs": [],
      "stateMutability": "nonpayable",
      "type": "constructor"
    },
    {
      "anonymous": false,
      "inputs": [
        {
          "indexed": true,
          "internalType": "uint256",
          "name": "id",
          "type": "uint256"
        },
        {
          "indexed": true,
          "internalType": "address",
          "name": "acknowledgedBy",
          "type": "address"
        },
        {
          "indexed": false,
          "internalType": "uint256",
          "name": "timestamp",
          "type": "uint256"
        }
      ],
      "name": "CommandAcknowledged",
      "type": "event"
    },
    {
      "anonymous": false,
      "inputs": [
        {
          "indexed": true,
          "internalType": "uint256",
          "name": "id",
          "type": "uint256"
        },
        {
          "indexed": true,
          "internalType": "address",
          "name": "sender",
          "type": "address"
        },
        {
          "indexed": false,
          "internalType": "uint8",
          "name": "recipientGroup",
          "type": "uint8"
        },
        {
          "indexed": false,
          "internalType": "uint8",
          "name": "branch",
          "type": "uint8"
        },
        {
          "indexed": false,
          "internalType": "uint8",
          "name": "layer",
          "type": "uint8"
        },
        {
          "indexed": false,
          "internalType": "string",
          "name": "commandText",
          "type": "string"
        },
        {
          "indexed": false,
          "internalType": "uint256",
          "name": "timestamp",
          "type": "uint256"
        }
      ],
      "name": "CommandSent",
      "type": "event"
    },
    {
      "anonymous": false,
      "inputs": [
        {
          "indexed": true,
          "internalType": "address",
          "name": "account",
          "type": "address"
        },
        {
          "indexed": false,
          "internalType": "enum MDCNCommand.Role",
          "name": "role",
          "type": "uint8"
        }
      ],
      "name": "RoleAssigned",
      "type": "event"
    },
    {
      "inputs": [
        {
          "internalType": "uint256",
          "name": "_commandId",
          "type": "uint256"
        }
      ],
      "name": "acknowledgeCommand",
      "outputs": [],
      "stateMutability": "nonpayable",
      "type": "function"
    },
    {
      "inputs": [
        {
          "internalType": "address",
          "name": "_account",
          "type": "address"
        },
        {
          "internalType": "enum MDCNCommand.Role",
          "name": "_role",
          "type": "uint8"
        }
      ],
      "name": "assignRole",
      "outputs": [],
      "stateMutability": "nonpayable",
      "type": "function"
    },
    {
      "inputs": [],
      "name": "commandCount",
      "outputs": [
        {
          "internalType": "uint256",
          "name": "",
          "type": "uint256"
        }
      ],
      "stateMutability": "view",
      "type": "function"
    },
    {
      "inputs": [
        {
          "internalType": "uint256",
          "name": "",
          "type": "uint256"
        }
      ],
      "name": "commands",
      "outputs": [
        {
          "internalType": "uint256",
          "name": "id",
          "type": "uint256"
        },
        {
          "internalType": "address",
          "name": "sender",
          "type": "address"
        },
        {
          "internalType": "enum MDCNCommand.RecipientGroup",
          "name": "recipientGroup",
          "type": "uint8"
        },
        {
          "internalType": "enum MDCNCommand.Branch",
          "name": "branch",
          "type": "uint8"
        },
        {
          "internalType": "uint8",
          "name": "layer",
          "type": "uint8"
        },
        {
          "internalType": "string",
          "name": "commandText",
          "type": "string"
        },
        {
          "internalType": "uint256",
          "name": "timestamp",
          "type": "uint256"
        },
        {
          "internalType": "bool",
          "name": "executed",
          "type": "bool"
        },
        {
          "internalType": "bool",
          "name": "acknowledged",
          "type": "bool"
        },
        {
          "internalType": "address",
          "name": "acknowledgedBy",
          "type": "address"
        },
        {
          "internalType": "uint256",
          "name": "acknowledgedTimestamp",
          "type": "uint256"
        }
      ],
      "stateMutability": "view",
      "type": "function"
    },
    {
      "inputs": [
        {
          "internalType": "uint256",
          "name": "_commandId",
          "type": "uint256"
        }
      ],
      "name": "executeCommand",
      "outputs": [],
      "stateMutability": "nonpayable",
      "type": "function"
    },
    {
      "inputs": [
        {
          "internalType": "address",
          "name": "",
          "type": "address"
        }
      ],
      "name": "roles",
      "outputs": [
        {
          "internalType": "enum MDCNCommand.Role",
          "name": "",
          "type": "uint8"
        }
      ],
      "stateMutability": "view",
      "type": "function"
    },
    {
      "inputs": [
        {
          "internalType": "uint8",
          "name": "_layer",
          "type": "uint8"
        },
        {
          "internalType": "uint8",
          "name": "_recipientGroup",
          "type": "uint8"
        },
        {
          "internalType": "uint8",
          "name": "_branch",
          "type": "uint8"
        },
        {
          "internalType": "string",
          "name": "_commandText",
          "type": "string"
        }
      ],
      "name": "sendCommand",
      "outputs": [],
      "stateMutability": "nonpayable",
      "type": "function"
    },
    {
      "inputs": [
        {
          "internalType": "address",
          "name": "_recipient",
          "type": "address"
        },
        {
          "internalType": "uint8",
          "name": "_layer",
          "type": "uint8"
        },
        {
          "internalType": "string",
          "name": "_commandText",
          "type": "string"
        }
      ],
      "name": "sendDirectCommand",
      "outputs": [],
      "stateMutability": "nonpayable",
      "type": "function"
    },
    {
      "inputs": [
        {
          "internalType": "address",
          "name": "_account",
          "type": "address"
        },
        {
          "internalType": "uint8",
          "name": "_roleId",
          "type": "uint8"
        }
      ],
      "name": "setRole",
      "outputs": [],
      "stateMutability": "nonpayable",
      "type": "function"
    }
  ],
  "bytecode": "0x60806040523480156200001157600080fd5b506001600260003373ffffffffffffffffffffffffffffffffffffffff1673ffffffffffffffffffffffffffffffffffffffff16815260200190815260200160002060006101000a81548160ff021916908360038111156200009c577f4e487b7100000000000000000000000000000000000000000000000000000000600052602160045260246000fd5b02179055503373ffffffffffffffffffffffffffffffffffffffff167f4ac36fa53f167ceb85964be512e01de2a3b8bdb9862f917da079deeeff689b386001604051620000ea919062000109565b60405180910390a262000195565b62000103816200013b565b82525050565b6000602082019050620001206000830184620000f8565b92915050565b600081905062000136826200017e565b919050565b6000620001488262000126565b9050919050565b7f4e487b7100000000000000000000000000000000000000000000000000000000600052602160045260246000fd5b600481106200019257620001916200014f565b5b50565b611eb980620001a56000396000f3fe608060405234801561001057600080fd5b50600436106100935760003560e01c806379bac2241161006657806379bac224146101265780639937464214610144578063a42b910314610174578063cb100d9714610190578063d9512518146101ac57610093565b806311438b381461009857806346cfdace146100d2578063571c3e60146100ee578063630a195b1461010a575b600080fd5b6100b260048036038101906100ad919061152a565b6101c8565b6040516100c99b9a999897969594939291906118a1565b60405180910390f35b6100ec60048036038101906100e7919061152a565b61032b565b005b61010860048036038101906101039190611487565b610498565b005b610124600480360381019061011f919061144b565b6104e7565b005b61012e6106c5565b60405161013b9190611886565b60405180910390f35b61015e60048036038101906101599190611422565b6106cb565b60405161016b9190611751565b60405180910390f35b61018e60048036038101906101899190611553565b6106eb565b005b6101aa60048036038101906101a5919061152a565b610b89565b005b6101c660048036038101906101c191906114c3565b610e29565b005b60016020528060005260406000206000915090508060000154908060010160009054906101000a900473ffffffffffffffffffffffffffffffffffffffff16908060010160149054906101000a900460ff16908060010160159054906101000a900460ff16908060010160169054906101000a900460ff169080600201805461025090611b37565b80601f016020809104026020016040519081016040528092919081815260200182805461027c90611b37565b80156102c95780601f1061029e576101008083540402835291602001916102c9565b820191906000526020600020905b8154815290600101906020018083116102ac57829003601f168201915b5050505050908060030154908060040160009054906101000a900460ff16908060040160019054906101000a900460ff16908060040160029054906101000a900473ffffffffffffffffffffffffffffffffffffffff1690806005015490508b565b600060016000838152602001908152602001600020905060008160000154141561038a576040517f08c379a000000000000000000000000000000000000000000000000000000000815260040161038190611866565b60405180910390fd5b8060040160019054906101000a900460ff16156103dc576040517f08c379a00000000000000000000000000000000000000000000000000000000081526004016103d390611826565b60405180910390fd5b60018160040160016101000a81548160ff021916908315150217905550338160040160026101000a81548173ffffffffffffffffffffffffffffffffffffffff021916908373ffffffffffffffffffffffffffffffffffffffff1602179055504281600501819055503373ffffffffffffffffffffffffffffffffffffffff16827fb5fe267ea00a3017be02bd587c808a49e693820ae082720eb48b2c4b41e623bf4260405161048c9190611886565b60405180910390a35050565b60008160ff1660038111156104d6577f4e487b7100000000000000000000000000000000000000000000000000000000600052602160045260246000fd5b90506104e283826104e7565b505050565b60016003811115610521577f4e487b7100000000000000000000000000000000000000000000000000000000600052602160045260246000fd5b600260003373ffffffffffffffffffffffffffffffffffffffff1673ffffffffffffffffffffffffffffffffffffffff16815260200190815260200160002060009054906101000a900460ff1660038111156105a6577f4e487b7100000000000000000000000000000000000000000000000000000000600052602160045260246000fd5b146105e6576040517f08c379a00000000000000000000000000000000000000000000000000000000081526004016105dd906117c6565b60405180910390fd5b80600260008473ffffffffffffffffffffffffffffffffffffffff1673ffffffffffffffffffffffffffffffffffffffff16815260200190815260200160002060006101000a81548160ff0219169083600381111561066e577f4e487b7100000000000000000000000000000000000000000000000000000000600052602160045260246000fd5b02179055508173ffffffffffffffffffffffffffffffffffffffff167f4ac36fa53f167ceb85964be512e01de2a3b8bdb9862f917da079deeeff689b38826040516106b99190611751565b60405180910390a25050565b60005481565b60026020528060005260406000206000915054906101000a900460ff1681565b8360ff16600260003373ffffffffffffffffffffffffffffffffffffffff1673ffffffffffffffffffffffffffffffffffffffff16815260200190815260200160002060009054906101000a900460ff166003811115610774577f4e487b7100000000000000000000000000000000000000000000000000000000600052602160045260246000fd5b60ff1610156107b8576040517f08c379a00000000000000000000000000000000000000000000000000000000081526004016107af90611806565b60405180910390fd5b6000808154809291906107ca90611b9a565b919050555060405180610160016040528060005481526020013373ffffffffffffffffffffffffffffffffffffffff1681526020018460ff16600481111561083b577f4e487b7100000000000000000000000000000000000000000000000000000000600052602160045260246000fd5b6004811115610873577f4e487b7100000000000000000000000000000000000000000000000000000000600052602160045260246000fd5b81526020018360ff1660038111156108b4577f4e487b7100000000000000000000000000000000000000000000000000000000600052602160045260246000fd5b60038111156108ec577f4e487b7100000000000000000000000000000000000000000000000000000000600052602160045260246000fd5b81526020018560ff168152602001828152602001428152602001600015158152602001600015158152602001600073ffffffffffffffffffffffffffffffffffffffff168152602001600081525060016000805481526020019081526020016000206000820151816000015560208201518160010160006101000a81548173ffffffffffffffffffffffffffffffffffffffff021916908373ffffffffffffffffffffffffffffffffffffffff16021790555060408201518160010160146101000a81548160ff021916908360048111156109f0577f4e487b7100000000000000000000000000000000000000000000000000000000600052602160045260246000fd5b021790555060608201518160010160156101000a81548160ff02191690836003811115610a46577f4e487b7100000000000000000000000000000000000000000000000000000000600052602160045260246000fd5b021790555060808201518160010160166101000a81548160ff021916908360ff16021790555060a0820151816002019080519060200190610a889291906112c3565b5060c0820151816003015560e08201518160040160006101000a81548160ff0219169083151502179055506101008201518160040160016101000a81548160ff0219169083151502179055506101208201518160040160026101000a81548173ffffffffffffffffffffffffffffffffffffffff021916908373ffffffffffffffffffffffffffffffffffffffff16021790555061014082015181600501559050503373ffffffffffffffffffffffffffffffffffffffff166000547f3ab6b8ca1061a5b7011ca746bbfa30d56d695eb03f63a230fcecd7b3a5c1c5bf8585888642604051610b7b959493929190611953565b60405180910390a350505050565b60016003811115610bc3577f4e487b7100000000000000000000000000000000000000000000000000000000600052602160045260246000fd5b600260003373ffffffffffffffffffffffffffffffffffffffff1673ffffffffffffffffffffffffffffffffffffffff16815260200190815260200160002060009054906101000a900460ff166003811115610c48577f4e487b7100000000000000000000000000000000000000000000000000000000600052602160045260246000fd5b14610c88576040517f08c379a0000000000000000000000000000000000000000000000000000000008152600401610c7f90611846565b60405180910390fd5b6000600160008381526020019081526020016000209050600081600001541415610ce7576040517f08c379a0000000000000000000000000000000000000000000000000000000008152600401610cde90611866565b60405180910390fd5b8060040160009054906101000a900460ff1615610d39576040517f08c379a0000000000000000000000000000000000000000000000000000000008152600401610d30906117e6565b60405180910390fd5b60018160040160006101000a81548160ff0219169083151502179055508060040160019054906101000a900460ff16610e255760018160040160016101000a81548160ff021916908315150217905550338160040160026101000a81548173ffffffffffffffffffffffffffffffffffffffff021916908373ffffffffffffffffffffffffffffffffffffffff1602179055504281600501819055503373ffffffffffffffffffffffffffffffffffffffff16827fb5fe267ea00a3017be02bd587c808a49e693820ae082720eb48b2c4b41e623bf42604051610e1c9190611886565b60405180910390a35b5050565b8160ff16600260003373ffffffffffffffffffffffffffffffffffffffff1673ffffffffffffffffffffffffffffffffffffffff16815260200190815260200160002060009054906101000a900460ff166003811115610eb2577f4e487b7100000000000000000000000000000000000000000000000000000000600052602160045260246000fd5b60ff161015610ef6576040517f08c379a0000000000000000000000000000000000000000000000000000000008152600401610eed90611806565b60405180910390fd5b600080815480929190610f0890611b9a565b919050555060405180610160016040528060005481526020013373ffffffffffffffffffffffffffffffffffffffff16815260200160006004811115610f77577f4e487b7100000000000000000000000000000000000000000000000000000000600052602160045260246000fd5b6004811115610faf577f4e487b7100000000000000000000000000000000000000000000000000000000600052602160045260246000fd5b815260200160006003811115610fee577f4e487b7100000000000000000000000000000000000000000000000000000000600052602160045260246000fd5b6003811115611026577f4e487b7100000000000000000000000000000000000000000000000000000000600052602160045260246000fd5b81526020018360ff168152602001828152602001428152602001600015158152602001600015158152602001600073ffffffffffffffffffffffffffffffffffffffff168152602001600081525060016000805481526020019081526020016000206000820151816000015560208201518160010160006101000a81548173ffffffffffffffffffffffffffffffffffffffff021916908373ffffffffffffffffffffffffffffffffffffffff16021790555060408201518160010160146101000a81548160ff0219169083600481111561112a577f4e487b7100000000000000000000000000000000000000000000000000000000600052602160045260246000fd5b021790555060608201518160010160156101000a81548160ff02191690836003811115611180577f4e487b7100000000000000000000000000000000000000000000000000000000600052602160045260246000fd5b021790555060808201518160010160166101000a81548160ff021916908360ff16021790555060a08201518160020190805190602001906111c29291906112c3565b5060c0820151816003015560e08201518160040160006101000a81548160ff0219169083151502179055506101008201518160040160016101000a81548160ff0219169083151502179055506101208201518160040160026101000a81548173ffffffffffffffffffffffffffffffffffffffff021916908373ffffffffffffffffffffffffffffffffffffffff16021790555061014082015181600501559050503373ffffffffffffffffffffffffffffffffffffffff166000547f3ab6b8ca1061a5b7011ca746bbfa30d56d695eb03f63a230fcecd7b3a5c1c5bf6000808686426040516112b695949392919061176c565b60405180910390a3505050565b8280546112cf90611b37565b90600052602060002090601f0160209004810192826112f15760008555611338565b82601f1061130a57805160ff1916838001178555611338565b82800160010185558215611338579182015b8281111561133757825182559160200191906001019061131c565b5b5090506113459190611349565b5090565b5b8082111561136257600081600090555060010161134a565b5090565b6000611379611374846119d2565b6119ad565b90508281526020810184848401111561139157600080fd5b61139c848285611af5565b509392505050565b6000813590506113b381611e2e565b92915050565b6000813590506113c881611e45565b92915050565b600082601f8301126113df57600080fd5b81356113ef848260208601611366565b91505092915050565b60008135905061140781611e55565b92915050565b60008135905061141c81611e6c565b92915050565b60006020828403121561143457600080fd5b6000611442848285016113a4565b91505092915050565b6000806040838503121561145e57600080fd5b600061146c858286016113a4565b925050602061147d858286016113b9565b9150509250929050565b6000806040838503121561149a57600080fd5b60006114a8858286016113a4565b92505060206114b98582860161140d565b9150509250929050565b6000806000606084860312156114d857600080fd5b60006114e6868287016113a4565b93505060206114f78682870161140d565b925050604084013567ffffffffffffffff81111561151457600080fd5b611520868287016113ce565b9150509250925092565b60006020828403121561153c57600080fd5b600061154a848285016113f8565b91505092915050565b6000806000806080858703121561156957600080fd5b60006115778782880161140d565b94505060206115888782880161140d565b93505060406115998782880161140d565b925050606085013567ffffffffffffffff8111156115b657600080fd5b6115c2878288016113ce565b91505092959194509250565b6115d781611a1f565b82525050565b6115e681611a31565b82525050565b6115f581611aad565b82525050565b61160481611abf565b82525050565b61161381611ad1565b82525050565b61162281611ae3565b82525050565b600061163382611a03565b61163d8185611a0e565b935061164d818560208601611b04565b61165681611c9f565b840191505092915050565b600061166e602783611a0e565b915061167982611cb0565b604082019050919050565b6000611691601083611a0e565b915061169c82611cff565b602082019050919050565b60006116b4601f83611a0e565b91506116bf82611d28565b602082019050919050565b60006116d7601483611a0e565b91506116e282611d51565b602082019050919050565b60006116fa602383611a0e565b915061170582611d7a565b604082019050919050565b600061171d601683611a0e565b915061172882611dc9565b602082019050919050565b61173c81611a96565b82525050565b61174b81611aa0565b82525050565b6000602082019050611766600083018461160a565b92915050565b600060a0820190506117816000830188611619565b61178e6020830187611619565b61179b6040830186611742565b81810360608301526117ad8185611628565b90506117bc6080830184611733565b9695505050505050565b600060208201905081810360008301526117df81611661565b9050919050565b600060208201905081810360008301526117ff81611684565b9050919050565b6000602082019050818103600083015261181f816116a7565b9050919050565b6000602082019050818103600083015261183f816116ca565b9050919050565b6000602082019050818103600083015261185f816116ed565b9050919050565b6000602082019050818103600083015261187f81611710565b9050919050565b600060208201905061189b6000830184611733565b92915050565b6000610160820190506118b7600083018e611733565b6118c4602083018d6115ce565b6118d1604083018c6115fb565b6118de606083018b6115ec565b6118eb608083018a611742565b81810360a08301526118fd8189611628565b905061190c60c0830188611733565b61191960e08301876115dd565b6119276101008301866115dd565b6119356101208301856115ce565b611943610140830184611733565b9c9b505050505050505050505050565b600060a0820190506119686000830188611742565b6119756020830187611742565b6119826040830186611742565b81810360608301526119948185611628565b90506119a36080830184611733565b9695505050505050565b60006119b76119c8565b90506119c38282611b69565b919050565b6000604051905090565b600067ffffffffffffffff8211156119ed576119ec611c70565b5b6119f682611c9f565b9050602081019050919050565b600081519050919050565b600082825260208201905092915050565b6000611a2a82611a76565b9050919050565b60008115159050919050565b6000819050611a4b82611df2565b919050565b6000819050611a5e82611e06565b919050565b6000819050611a7182611e1a565b919050565b600073ffffffffffffffffffffffffffffffffffffffff82169050919050565b6000819050919050565b600060ff82169050919050565b6000611ab882611a3d565b9050919050565b6000611aca82611a50565b9050919050565b6000611adc82611a63565b9050919050565b6000611aee82611aa0565b9050919050565b82818337600083830152505050565b60005b83811015611b22578082015181840152602081019050611b07565b83811115611b31576000848401525b50505050565b60006002820490506001821680611b4f57607f821691505b60208210811415611b6357611b62611c41565b5b50919050565b611b7282611c9f565b810181811067ffffffffffffffff82111715611b9157611b90611c70565b5b80604052505050565b6000611ba582611a96565b91507fffffffffffffffffffffffffffffffffffffffffffffffffffffffffffffffff821415611bd857611bd7611be3565b5b600182019050919050565b7f4e487b7100000000000000000000000000000000000000000000000000000000600052601160045260246000fd5b7f4e487b7100000000000000000000000000000000000000000000000000000000600052602160045260246000fd5b7f4e487b7100000000000000000000000000000000000000000000000000000000600052602260045260246000fd5b7f4e487b7100000000000000000000000000000000000000000000000000000000600052604160045260246000fd5b6000601f19601f8301169050919050565b7f4f6e6c7920537472617465676963202861646d696e292063616e20617373696760008201527f6e20726f6c657300000000000000000000000000000000000000000000000000602082015250565b7f416c726561647920657865637574656400000000000000000000000000000000600082015250565b7f556e617574686f72697a65643a20696e73756666696369656e7420726f6c6500600082015250565b7f416c72656164792061636b6e6f776c6564676564000000000000000000000000600082015250565b7f4f6e6c79205374726174656769632063616e206578656375746520636f6d6d6160008201527f6e64730000000000000000000000000000000000000000000000000000000000602082015250565b7f436f6d6d616e6420646f6573206e6f7420657869737400000000000000000000600082015250565b60048110611e0357611e02611c12565b5b50565b60058110611e1757611e16611c12565b5b50565b60048110611e2b57611e2a611c12565b5b50565b611e3781611a1f565b8114611e4257600080fd5b50565b60048110611e5257600080fd5b50565b611e5e81611a96565b8114611e6957600080fd5b50565b611e7581611aa0565b8114611e8057600080fd5b5056fea26469706673582212205b5204a9229e96268009f45e0e67c7185d1b1005a97b9ac1c37d400f8087f1e264736f6c63430008040033",
  "linkReferences": {},
  "deployedLinkReferences": {}
}