{
  "_format": "hh-sol-artifact-1",
  "contractName": "MDCNCoordination",
  "sourceName": "Contracts/MDCNCoordination.sol",
  "abi": [
    {
      "anonymous": false,
      "inputs": [
        {
          "indexed": true,
          "internalType": "uint256",
          "name": "id",
          "type": "uint256"
        },
        {
          "indexed": true,
          "internalType": "address",
          "name": "acknowledgedBy",
          "type": "address"
        },
        {
          "indexed": false,
          "internalType": "uint256",
          "name": "timestamp",
          "type": "uint256"
        }
      ],
      "name": "IntelligenceAcknowledged",
      "type": "event"
    },
    {
      "anonymous": false,
      "inputs": [
        {
          "indexed": true,
          "internalType": "uint256",
          "name": "id",
          "type": "uint256"
        },
        {
          "indexed": true,
          "internalType": "address",
          "name": "sender",
          "type": "address"
        },
        {
          "indexed": true,
          "internalType": "address",
          "name": "recipient",
          "type": "address"
        },
        {
          "indexed": false,
          "internalType": "string",
          "name": "data",
          "type": "string"
        },
        {
          "indexed": false,
          "internalType": "uint256",
          "name": "timestamp",
          "type": "uint256"
        }
      ],
      "name": "IntelligenceSynced",
      "type": "event"
    },
    {
      "inputs": [
        {
          "internalType": "uint256",
          "name": "_intelId",
          "type": "uint256"
        }
      ],
      "name": "acknowledgeIntelligence",
      "outputs": [],
      "stateMutability": "nonpayable",
      "type": "function"
    },
    {
      "inputs": [],
      "name": "intelCount",
      "outputs": [
        {
          "internalType": "uint256",
          "name": "",
          "type": "uint256"
        }
      ],
      "stateMutability": "view",
      "type": "function"
    },
    {
      "inputs": [
        {
          "internalType": "uint256",
          "name": "",
          "type": "uint256"
        }
      ],
      "name": "intelStore",
      "outputs": [
        {
          "internalType": "uint256",
          "name": "id",
          "type": "uint256"
        },
        {
          "internalType": "address",
          "name": "sender",
          "type": "address"
        },
        {
          "internalType": "address",
          "name": "recipient",
          "type": "address"
        },
        {
          "internalType": "string",
          "name": "intelData",
          "type": "string"
        },
        {
          "internalType": "uint256",
          "name": "timestamp",
          "type": "uint256"
        },
        {
          "internalType": "bool",
          "name": "acknowledged",
          "type": "bool"
        },
        {
          "internalType": "address",
          "name": "acknowledgedBy",
          "type": "address"
        },
        {
          "internalType": "uint256",
          "name": "acknowledgedTimestamp",
          "type": "uint256"
        }
      ],
      "stateMutability": "view",
      "type": "function"
    },
    {
      "inputs": [
        {
          "internalType": "address",
          "name": "_recipient",
          "type": "address"
        },
        {
          "internalType": "string",
          "name": "_data",
          "type": "string"
        }
      ],
      "name": "syncIntelligence",
      "outputs": [],
      "stateMutability": "nonpayable",
      "type": "function"
    },
    {
      "inputs": [
        {
          "internalType": "uint8",
          "name": "_recipientGroup",
          "type": "uint8"
        },
        {
          "internalType": "uint8",
          "name": "_branch",
          "type": "uint8"
        },
        {
          "internalType": "string",
          "name": "_data",
          "type": "string"
        }
      ],
      "name": "syncIntelligenceLegacy",
      "outputs": [],
      "stateMutability": "nonpayable",
      "type": "function"
    }
  ],
  "bytecode": "0x608060405234801561001057600080fd5b506110e2806100206000396000f3fe608060405234801561001057600080fd5b50600436106100575760003560e01c80630fa904e91461005c57806389381cbd14610078578063944afedf14610094578063db1fdb6c146100b0578063e3e6e0d1146100ce575b600080fd5b61007660048036038101906100719190610b0a565b610105565b005b610092600480360381019061008d9190610ab6565b610370565b005b6100ae60048036038101906100a99190610b33565b6105bf565b005b6100b8610829565b6040516100c59190610cf9565b60405180910390f35b6100e860048036038101906100e39190610b0a565b61082f565b6040516100fc989796959493929190610d14565b60405180910390f35b6000600160008381526020019081526020016000209050600081600001541415610164576040517f08c379a000000000000000000000000000000000000000000000000000000000815260040161015b90610cb9565b60405180910390fd5b8060050160009054906101000a900460ff16156101b6576040517f08c379a00000000000000000000000000000000000000000000000000000000081526004016101ad90610cd9565b60405180910390fd5b73123456789012345678901234567890123456789073ffffffffffffffffffffffffffffffffffffffff168160020160009054906101000a900473ffffffffffffffffffffffffffffffffffffffff1673ffffffffffffffffffffffffffffffffffffffff16146102b4578060020160009054906101000a900473ffffffffffffffffffffffffffffffffffffffff1673ffffffffffffffffffffffffffffffffffffffff163373ffffffffffffffffffffffffffffffffffffffff16146102b3576040517f08c379a00000000000000000000000000000000000000000000000000000000081526004016102aa90610c99565b60405180910390fd5b5b60018160050160006101000a81548160ff021916908315150217905550338160050160016101000a81548173ffffffffffffffffffffffffffffffffffffffff021916908373ffffffffffffffffffffffffffffffffffffffff1602179055504281600601819055503373ffffffffffffffffffffffffffffffffffffffff16827f41b96e82799f0636d3fa514b965f0a1b7da2e8daadcfab6439587411a0f45097426040516103649190610cf9565b60405180910390a35050565b60008081548092919061038290610f05565b919050555060405180610100016040528060005481526020013373ffffffffffffffffffffffffffffffffffffffff1681526020018373ffffffffffffffffffffffffffffffffffffffff168152602001828152602001428152602001600015158152602001600073ffffffffffffffffffffffffffffffffffffffff168152602001600081525060016000805481526020019081526020016000206000820151816000015560208201518160010160006101000a81548173ffffffffffffffffffffffffffffffffffffffff021916908373ffffffffffffffffffffffffffffffffffffffff16021790555060408201518160020160006101000a81548173ffffffffffffffffffffffffffffffffffffffff021916908373ffffffffffffffffffffffffffffffffffffffff16021790555060608201518160030190805190602001906104d292919061096c565b506080820151816004015560a08201518160050160006101000a81548160ff02191690831515021790555060c08201518160050160016101000a81548173ffffffffffffffffffffffffffffffffffffffff021916908373ffffffffffffffffffffffffffffffffffffffff16021790555060e082015181600601559050508173ffffffffffffffffffffffffffffffffffffffff163373ffffffffffffffffffffffffffffffffffffffff166000547f49fcfb100fb0830f8b696595100deed5734c083bdbf2db7d16d7f7419d2ea94084426040516105b3929190610c69565b60405180910390a45050565b6000808154809291906105d190610f05565b91905055506000731234567890123456789012345678901234567890905060405180610100016040528060005481526020013373ffffffffffffffffffffffffffffffffffffffff1681526020018273ffffffffffffffffffffffffffffffffffffffff168152602001838152602001428152602001600015158152602001600073ffffffffffffffffffffffffffffffffffffffff168152602001600081525060016000805481526020019081526020016000206000820151816000015560208201518160010160006101000a81548173ffffffffffffffffffffffffffffffffffffffff021916908373ffffffffffffffffffffffffffffffffffffffff16021790555060408201518160020160006101000a81548173ffffffffffffffffffffffffffffffffffffffff021916908373ffffffffffffffffffffffffffffffffffffffff160217905550606082015181600301908051906020019061073a92919061096c565b506080820151816004015560a08201518160050160006101000a81548160ff02191690831515021790555060c08201518160050160016101000a81548173ffffffffffffffffffffffffffffffffffffffff021916908373ffffffffffffffffffffffffffffffffffffffff16021790555060e082015181600601559050508073ffffffffffffffffffffffffffffffffffffffff163373ffffffffffffffffffffffffffffffffffffffff166000547f49fcfb100fb0830f8b696595100deed5734c083bdbf2db7d16d7f7419d2ea940854260405161081b929190610c69565b60405180910390a450505050565b60005481565b60016020528060005260406000206000915090508060000154908060010160009054906101000a900473ffffffffffffffffffffffffffffffffffffffff16908060020160009054906101000a900473ffffffffffffffffffffffffffffffffffffffff16908060030180546108a490610ea2565b80601f01602080910402602001604051908101604052809291908181526020018280546108d090610ea2565b801561091d5780601f106108f25761010080835404028352916020019161091d565b820191906000526020600020905b81548152906001019060200180831161090057829003601f168201915b5050505050908060040154908060050160009054906101000a900460ff16908060050160019054906101000a900473ffffffffffffffffffffffffffffffffffffffff16908060060154905088565b82805461097890610ea2565b90600052602060002090601f01602090048101928261099a57600085556109e1565b82601f106109b357805160ff19168380011785556109e1565b828001600101855582156109e1579182015b828111156109e05782518255916020019190600101906109c5565b5b5090506109ee91906109f2565b5090565b5b80821115610a0b5760008160009055506001016109f3565b5090565b6000610a22610a1d84610dbe565b610d99565b905082815260208101848484011115610a3a57600080fd5b610a45848285610e60565b509392505050565b600081359050610a5c81611067565b92915050565b600082601f830112610a7357600080fd5b8135610a83848260208601610a0f565b91505092915050565b600081359050610a9b8161107e565b92915050565b600081359050610ab081611095565b92915050565b60008060408385031215610ac957600080fd5b6000610ad785828601610a4d565b925050602083013567ffffffffffffffff811115610af457600080fd5b610b0085828601610a62565b9150509250929050565b600060208284031215610b1c57600080fd5b6000610b2a84828501610a8c565b91505092915050565b600080600060608486031215610b4857600080fd5b6000610b5686828701610aa1565b9350506020610b6786828701610aa1565b925050604084013567ffffffffffffffff811115610b8457600080fd5b610b9086828701610a62565b9150509250925092565b610ba381610e0b565b82525050565b610bb281610e1d565b82525050565b6000610bc382610def565b610bcd8185610dfa565b9350610bdd818560208601610e6f565b610be681610fdb565b840191505092915050565b6000610bfe601183610dfa565b9150610c0982610fec565b602082019050919050565b6000610c21600f83610dfa565b9150610c2c82611015565b602082019050919050565b6000610c44601483610dfa565b9150610c4f8261103e565b602082019050919050565b610c6381610e49565b82525050565b60006040820190508181036000830152610c838185610bb8565b9050610c926020830184610c5a565b9392505050565b60006020820190508181036000830152610cb281610bf1565b9050919050565b60006020820190508181036000830152610cd281610c14565b9050919050565b60006020820190508181036000830152610cf281610c37565b9050919050565b6000602082019050610d0e6000830184610c5a565b92915050565b600061010082019050610d2a600083018b610c5a565b610d37602083018a610b9a565b610d446040830189610b9a565b8181036060830152610d568188610bb8565b9050610d656080830187610c5a565b610d7260a0830186610ba9565b610d7f60c0830185610b9a565b610d8c60e0830184610c5a565b9998505050505050505050565b6000610da3610db4565b9050610daf8282610ed4565b919050565b6000604051905090565b600067ffffffffffffffff821115610dd957610dd8610fac565b5b610de282610fdb565b9050602081019050919050565b600081519050919050565b600082825260208201905092915050565b6000610e1682610e29565b9050919050565b60008115159050919050565b600073ffffffffffffffffffffffffffffffffffffffff82169050919050565b6000819050919050565b600060ff82169050919050565b82818337600083830152505050565b60005b83811015610e8d578082015181840152602081019050610e72565b83811115610e9c576000848401525b50505050565b60006002820490506001821680610eba57607f821691505b60208210811415610ece57610ecd610f7d565b5b50919050565b610edd82610fdb565b810181811067ffffffffffffffff82111715610efc57610efb610fac565b5b80604052505050565b6000610f1082610e49565b91507fffffffffffffffffffffffffffffffffffffffffffffffffffffffffffffffff821415610f4357610f42610f4e565b5b600182019050919050565b7f4e487b7100000000000000000000000000000000000000000000000000000000600052601160045260246000fd5b7f4e487b7100000000000000000000000000000000000000000000000000000000600052602260045260246000fd5b7f4e487b7100000000000000000000000000000000000000000000000000000000600052604160045260246000fd5b6000601f19601f8301169050919050565b7f4e6f742074686520726563697069656e74000000000000000000000000000000600082015250565b7f496e74656c206e6f7420666f756e640000000000000000000000000000000000600082015250565b7f416c72656164792061636b6e6f776c6564676564000000000000000000000000600082015250565b61107081610e0b565b811461107b57600080fd5b50565b61108781610e49565b811461109257600080fd5b50565b61109e81610e53565b81146110a957600080fd5b5056fea26469706673582212203bb4346a55ab2e38dc77d9ea0f115643154aa841e81f5ce383112c1b10a082cf64736f6c63430008040033",
  "linkReferences": {},
  "deployedLinkReferences": {}
}